{
  "contractName": "Brasileirao",
  "abi": [
    {
      "inputs": [],
      "payable": false,
      "stateMutability": "nonpayable",
      "type": "constructor"
    },
    {
      "anonymous": false,
      "inputs": [
        {
          "indexed": true,
          "internalType": "uint256",
          "name": "_teamId",
          "type": "uint256"
        }
      ],
      "name": "bettedEvent",
      "type": "event"
    },
    {
      "constant": true,
      "inputs": [
        {
          "internalType": "uint256",
          "name": "",
          "type": "uint256"
        }
      ],
      "name": "teams",
      "outputs": [
        {
          "internalType": "uint256",
          "name": "id",
          "type": "uint256"
        },
        {
          "internalType": "string",
          "name": "name",
          "type": "string"
        },
        {
          "internalType": "uint256",
          "name": "bets",
          "type": "uint256"
        }
      ],
      "payable": false,
      "stateMutability": "view",
      "type": "function"
    },
    {
      "constant": true,
      "inputs": [],
      "name": "teamsCount",
      "outputs": [
        {
          "internalType": "uint256",
          "name": "",
          "type": "uint256"
        }
      ],
      "payable": false,
      "stateMutability": "view",
      "type": "function"
    },
    {
      "constant": false,
      "inputs": [
        {
          "internalType": "uint256",
          "name": "_teamId",
          "type": "uint256"
        }
      ],
      "name": "bet",
      "outputs": [],
      "payable": false,
      "stateMutability": "nonpayable",
      "type": "function"
    }
  ],
  "bytecode": "0x608060405234801561001057600080fd5b506100556040518060400160405280600981526020017f53616f205061756c6f000000000000000000000000000000000000000000000081525061012660201b60201c565b6100996040518060400160405280600b81526020017f436f72696e746869616e7300000000000000000000000000000000000000000081525061012660201b60201c565b6100dd6040518060400160405280600681526020017f53616e746f73000000000000000000000000000000000000000000000000000081525061012660201b60201c565b6101216040518060400160405280600981526020017f50616c6d6569726173000000000000000000000000000000000000000000000081525061012660201b60201c565b610245565b6000808154809291906001019190505550604051806060016040528060005481526020018281526020016000815250600160008054815260200190815260200160002060008201518160000155602082015181600101908051906020019061018f9291906101a0565b506040820151816002015590505050565b828054600181600116156101000203166002900490600052602060002090601f016020900481019282601f106101e157805160ff191683800117855561020f565b8280016001018555821561020f579182015b8281111561020e5782518255916020019190600101906101f3565b5b50905061021c9190610220565b5090565b61024291905b8082111561023e576000816000905550600101610226565b5090565b90565b6102b4806102546000396000f3fe608060405234801561001057600080fd5b50600436106100415760003560e01c80633ed2b77a146100465780637365870b146100fb578063c497bc4c14610129575b600080fd5b6100726004803603602081101561005c57600080fd5b8101908080359060200190929190505050610147565b6040518084815260200180602001838152602001828103825284818151815260200191508051906020019080838360005b838110156100be5780820151818401526020810190506100a3565b50505050905090810190601f1680156100eb5780820380516001836020036101000a031916815260200191505b5094505050505060405180910390f35b6101276004803603602081101561011157600080fd5b8101908080359060200190929190505050610209565b005b610131610279565b6040518082815260200191505060405180910390f35b6001602052806000526040600020600091509050806000015490806001018054600181600116156101000203166002900480601f0160208091040260200160405190810160405280929190818152602001828054600181600116156101000203166002900480156101f95780601f106101ce576101008083540402835291602001916101f9565b820191906000526020600020905b8154815290600101906020018083116101dc57829003601f168201915b5050505050908060020154905083565b60008111801561021a575060005481105b61022357600080fd5b6001600082815260200190815260200160002060020160008154809291906001019190505550807f64f0014fd83747b616a485884a663df111989f4c8bd242ad8730b27f5256ff0b60405160405180910390a250565b6000548156fea265627a7a7231582002e4a7f932e939207f81ffa18a9cd08bf64e90eb91416a45bb1bff2ebcfa49f864736f6c63430005100032",
  "source": "// SPDX-License-Identifier: MIT\r\npragma solidity >=0.4.2 <0.8.0;\r\n\r\ncontract Brasileirao {\r\n\r\n    uint public teamsCount;\r\n    mapping(uint => Team) public teams;\r\n\r\n    struct Team {\r\n        uint id;\r\n        string name;\r\n        uint bets;\r\n    }\r\n\r\n    event bettedEvent (uint indexed _teamId);\r\n\r\n    constructor () public {\r\n        addTeam(\"Sao Paulo\");\r\n        addTeam(\"Corinthians\");\r\n        addTeam(\"Santos\");\r\n        addTeam(\"Palmeiras\");\r\n    }\r\n\r\n    function addTeam (string memory _name) private {\r\n        teamsCount++;\r\n        teams[teamsCount] = Team(teamsCount, _name, 0);\r\n    }\r\n\r\n    function bet(uint _teamId) public {\r\n        require(_teamId > 0 && _teamId < teamsCount);\r\n        teams[_teamId].bets++;\r\n        emit bettedEvent(_teamId);\r\n    }\r\n}",
  "sourcePath": "C:/Users/matt-/Documents/GITs/brasileirao-championship/contracts/Brasileirao.sol",
  "compiler": {
    "name": "solc",
    "version": "0.5.16+commit.9c3226ce.Emscripten.clang"
  },
  "schemaVersion": "3.3.3",
  "updatedAt": "2021-01-25T12:28:43.995Z",
  "networkType": "ethereum",
  "devdoc": {
    "methods": {}
  },
  "userdoc": {
    "methods": {}
  }
}